{
  "_format": "hh-sol-artifact-1",
  "contractName": "Counter",
  "sourceName": "contracts/Counter.sol",
  "abi": [
    {
      "anonymous": false,
      "inputs": [
        {
          "indexed": false,
          "internalType": "int64",
          "name": "newCount",
          "type": "int64"
        }
      ],
      "name": "CountChanged",
      "type": "event"
    },
    {
      "inputs": [],
      "name": "getCount",
      "outputs": [
        {
          "internalType": "int64",
          "name": "",
          "type": "int64"
        }
      ],
      "stateMutability": "view",
      "type": "function"
    },
    {
      "inputs": [],
      "name": "increment",
      "outputs": [],
      "stateMutability": "nonpayable",
      "type": "function"
    }
  ],
  "bytecode": "0x608060405260008060006101000a81548167ffffffffffffffff021916908360070b67ffffffffffffffff160217905550348015603b57600080fd5b506101d38061004b6000396000f3fe608060405234801561001057600080fd5b50600436106100365760003560e01c8063a87d942c1461003b578063d09de08a14610059575b600080fd5b610043610063565b6040516100509190610123565b60405180910390f35b610061610079565b005b60008060009054906101000a900460070b905090565b60008081819054906101000a900460070b809291906100979061016d565b91906101000a81548167ffffffffffffffff021916908360070b67ffffffffffffffff160217905550507f905dfac5507da2e9f805b2d4ce43ecf48d5d146fb3b344d09ea60138d9c3418560008054906101000a900460070b6040516100fd9190610123565b60405180910390a1565b60008160070b9050919050565b61011d81610107565b82525050565b60006020820190506101386000830184610114565b92915050565b7f4e487b7100000000000000000000000000000000000000000000000000000000600052601160045260246000fd5b600061017882610107565b9150677fffffffffffffff82036101925761019161013e565b5b60018201905091905056fea26469706673582212203222eb7f4c8f373889ba3cbc222da0509ac0d38b92cca71bf42b6142958786fe64736f6c634300081c0033",
  "linkReferences": {},
  "deployedLinkReferences": {}
}